:020000040800F2
:10000000000005204D590008195800081B58000829
:100010001D5800081F580008215800080000000063
:10002000000000000000000000000000235800084D
:10003000255800080000000027580008295800082B
:100040009D5900089D5900089D5900089D590008B8
:100050009D5900089D5900089D5900089D590008A8
:100060009D5900089D5900089D5900089D59000898
:100070009D5900089D5900089D5900089D59000888
:100080009D5900089D5900089D5900089D59000878
:100090009D5900089D5900089D5900089D59000868
:1000A0009D5900089D5900089D5900089D59000858
:1000B0009D5900089D5900089D5900089D59000848
:1000C0009D5900089D5900089D5900089D59000838
:1000D0009D5900089D5900089D5900089D59000828
:1000E0009D5900089D5900089D5900089D59000818
:1000F0009D5900089D5900089D5900089D59000808
:100100009D5900089D5900089D5900089D590008F7
:100110009D5900089D5900089D5900089D590008E7
:1001200031580008A95400089D5900089D5900083D
:10013000995400089D5900089D5900089D590008D0
:100140009D5900089D5900089D5900089D590008B7
:100150009D5900089D5900089D5900089D590008A7
:1001600041580008515800089D5900089D59000841
:100170009D5900089D5900089D5900080000000085
:100180009D5900089D5900089D5900089D59000877
:100190009D5900089D5900089D5900089D59000867
:1001A0009D5900089D5900089D5900086158000894
:1001B0009D5900089D5900089D5900089D59000847
:0801C0009D5900089D5900083B
:1001D00010B5054C237833B9044B13B10448AFF381
:1001E00000800123237010BDA40000200000000047
:1001F0009468000808B5034B1BB103490348AFF3EB
:10020000008008BD00000000A800002094680008DD
:1002100053B94AB9002908BF00281CBF4FF0FF316D
:100220004FF0FF3000F072B9ADF1080C6DE904CE6B
:1002300000F006F8DDF804E0DDE9022304B07047C1
:100240002DE9F047089E04468846002B4BD18A4290
:10025000154667D9B2FA82F24AB1C2F1200701FA13
:1002600002F320FA07F7954047EA030894404FEA63
:10027000154E230CB8FBFEF71FFA85FC0EFB178802
:1002800043EA084307FB0CF1994209D9EB1807F13F
:10029000FF3080F01B81994240F21881023F2B44CD
:1002A0005B1AA4B2B3FBFEF00EFB103344EA034426
:1002B00000FB0CFCA44509D92C1900F1FF3380F098
:1002C0000781A44540F2048102382C4440EA0740EB
:1002D000A4EB0C0400271EB1D4400023C6E9004360
:1002E0003946BDE8F0878B4209D9002E00F0EB803B
:1002F0000027C6E9000138463946BDE8F087B3FA61
:1003000083F7002F47D18B4202D3824200F2FA805A
:10031000841A61EB030301209846002EE0D0C6E961
:100320000048DDE702B9FFDEB2FA82F2002A40F0AF
:100330008F80491B4FEA154E1FFA85F80127B1FB44
:10034000FEFC230C0EFB1C1143EA014308FB0CF1DD
:10035000994207D9EB180CF1FF3002D2994200F212
:10036000CD808446591AA3B2B1FBFEF00EFB1014E7
:1003700043EA044408FB00F8A04507D92C1900F112
:10038000FF3302D2A04500F2B6801846A4EB080461
:1003900040EA0C409FE7C7F1200CBB4022FA0CFE5C
:1003A0004EEA030E01FA07F420FA0CF521FA0CF3D9
:1003B0004FEA1E482543B3FBF8F92C0C08FB193310
:1003C0001FFA8EFA44EA034309FB0AF49C4202FA3C
:1003D00007F200FA07F10BD91EEB030309F1FF3016
:1003E00080F087809C4240F28480A9F10209734426
:1003F0001B1BADB2B3FBF8F008FB103345EA034416
:1004000000FB0AFAA24508D91EEB040400F1FF33F1
:100410006BD2A24569D90238744440EA0940A0FB76
:100420000289A4EB0A044C45C2464B4654D351D032
:10043000002E69D0B1EB0A0564EB030404FA0CFC4E
:10044000FD40FC404CEA0505C6E90054002747E79B
:10045000C2F1200320FA03F7954001FA02F021FAD5
:1004600003F34FEA154E3843010CB3FBFEF71FFAB6
:1004700085F80EFB173341EA034107FB08F38B4273
:1004800004FA02F407D9691807F1FF3C2FD28B4216
:100490002DD9023F2944CB1A81B2B3FBFEF00EFBEB
:1004A000103341EA034100FB08F38B4207D9691876
:1004B00000F1FF3C17D28B4215D902382944C91AE2
:1004C00040EA07473BE73746304609E70746E7E695
:1004D0001846FBE64145ABD2B8EB020A69EB0E02C7
:1004E00001381346A4E76046E9E7184695E76746F2
:1004F000D1E781467CE702382C4447E7ACF1020C97
:100500002B442FE7384608E73746E9E6704700BF37
:1005100001F0FF01102A2BDB10F0070F08D010F8B4
:10052000013B013A8B422DD010F0070F42B3F6D1B8
:10053000F0B441EA012141EA014122F007047FF0D1
:1005400000070023F0E80256083C85EA010586EA28
:10055000010685FA47F5A3FA87F586FA47F6A5FA64
:1005600087F68EB9EED1F0BC01F0FF0102F0070270
:1005700032B110F8013B013A83EA010313B1F8D11B
:100580000020704701387047002D06BF35460338FC
:10059000073815F0010F07D1013015F4807F02BF35
:1005A000013015F4C03F0130F0BC0138704700BF86
:1005B00070B505460E46144600F0FEFE314628464C
:1005C00000F010FF80B2001B18BF012070BD0000BA
:1005D00038B50346134A106880B101290FD0DDB247
:1005E00010224FF484612846FFF7E2FF04461022F0
:1005F00040F222412846FFF7DBFF204438BDDDB240
:100600004FF400724FF484612846FFF7D1FF04468F
:100610004FF4007240F222412846FFF7C9FF204400
:10062000ECE700BFC000002008B50021FFF7D0FFB5
:1006300008BD08B50021FFF7CBFF08BD38B505465A
:100640000121FFF7C5FF044601220221E8B2FFF7AE
:10065000AFFF204438BD000070B51D4B1C680CB9BD
:10066000204670BD0E4605460121FFF7B1FF044646
:10067000022EF5D0EDB24FF400724FF4846128469B
:10068000FFF796FF04444FF4007240F222412846DF
:10069000FFF78EFF044400222D212846FFF788FF34
:1006A000044400222E212846FFF782FF0444002242
:1006B00005212846FFF77CFF044400221146284606
:1006C000FFF776FF0444024B00221A60C8E700BF20
:1006D000C00000202DE9F04106460F46642945D8A8
:1006E000C1EB8113464A82FB0312DD17C5EB62158D
:1006F000EDB2444B1C6844B13E2D39D8002F5AD17D
:1007000001213046FFF764FF04463E4B5B6853B35C
:10071000632F72D8C7EB07110B01394A82FB031212
:10072000DD17C5EB6215EDB2F6B245F480752A46C9
:100730004FF480613046FFF73BFF04442A4640F205
:1007400001413046FFF734FF04442A4640F2044199
:100750003046FFF72DFF04442A4640F2054130465B
:10076000FFF726FF04442046BDE8F0816425C0E77A
:1007700000213046FFF72CFF0446F5B240F27F120D
:100780001C212846FFF714FF044440F27F121D216C
:100790002846FFF70DFF044440F27F122621284629
:1007A000FFF706FF044440F27F1227212846FFF797
:1007B000FFFE0444A9E700213046FFF709FF044685
:1007C0005FFA86F845F4A0752A461C214046FFF7DB
:1007D000EFFE04442A461D214046FFF7E9FE04448B
:1007E0002A4626214046FFF7E3FE04442A462721F5
:1007F0004046FFF7DDFE044487E7EF2594E700BF9E
:100800001F85EB51C00000202DE9F047804691463E
:100810009A46CFB201F47F4600F0C4FD5FFA88F536
:1008200003224FF481712846FFF7C2FE04460022DE
:1008300040F617012846FFF7BBFE044400224FF4A0
:1008400081712846FFF7B4FE04446C223921284602
:10085000FFF7AEFE0444C6B3132201212846FFF77A
:10086000A7FE0444322000F0D7FD002F00F0C7801F
:10087000E94B01221A60022F52D0032F74D0974205
:100880002AD040F2033205212846FFF791FE0444A6
:10089000012240F201612846FFF78AFE044401224A
:1008A00040F202612846FFF783FE0444002240F232
:1008B00004612846FFF77CFE0444002240F20561F3
:1008C0002846FFF775FE04449CE0032201212846D8
:1008D000FFF76EFE0444C5E740F60C4205212846AA
:1008E000FFF766FE0444002240F201612846FFF74C
:1008F0005FFE0444002240F202612846FFF758FEE2
:100900000444022240F204612846FFF751FE0444E9
:10091000022240F205612846FFF74AFE044471E0D6
:1009200040F2033205212846FFF742FE044401222B
:1009300040F201612846FFF73BFE0444012240F2E9
:1009400002612846FFF734FE0444002240F20461AD
:100950002846FFF72DFE0444002240F20561284698
:10096000FFF726FE04444DE0B6F5006F23D040F6B5
:100970000F7205212846FFF71BFE0444012240F2B6
:1009800001612846FFF714FE0444012240F202618F
:100990002846FFF70DFE0444022240F20461284677
:1009A000FFF706FE0444022240F205612846FFF7E5
:1009B000FFFD044426E040F60F7205212846FFF7AC
:1009C000F7FD0444032240F201612846FFF7F0FDE1
:1009D0000444032240F202612846FFF7E9FD044483
:1009E000032240F204612846FFF7E2FD044403229B
:1009F00040F205612846FFF7DBFD044402E0864B28
:100A000000221A60002E00F0E880834B01225A6019
:100A1000B6F5007F77D047D9B6F5407F00F09E80CD
:100A2000B6F5006F40F0D78040F63C7204212846AE
:100A3000FFF7BEFD0444DB224FF48A612846FFF72E
:100A4000B7FD0444DB224FF488612846FFF7B0FD70
:100A5000044446F2A03202212846FFF7A9FD0444CF
:100A6000022240F206612846FFF7A2FD044402225A
:100A700040F207612846FFF79BFD044402224FF431
:100A8000C1612846FFF794FD0444022240F2096147
:100A90002846FFF78DFD04440D224FF4E0612846FF
:100AA000FFF786FD04449BE0B6F5807F40F093801D
:100AB0004FF4437204212846FFF77AFD0444DB22F9
:100AC0004FF488612846FFF773FD044446F2503224
:100AD00002212846FFF76CFD0444022240F2066121
:100AE0002846FFF765FD0444022240F207612846CC
:100AF000FFF75EFD04440D224FF4E0612846FFF746
:100B000057FD04446CE04FF4436204212846FFF78C
:100B10004FFD0444DB224FF48A612846FFF748FD6D
:100B200004444FF4C04202212846FFF741FD04442B
:100B300002224FF4C1612846FFF73AFD0444022225
:100B400040F209612846FFF733FD04440E224FF4BA
:100B5000E0612846FFF72CFD044441E011222821E2
:100B60002846FFF725FD0444352229212846FFF7B2
:100B70001FFD044435222A212846FFF719FD0444AD
:100B800040F2033204212846FFF712FD0444DB2221
:100B90004FF488612846FFF70BFD044446F25032BB
:100BA00002212846FFF704FD0444022240F20661B8
:100BB0002846FFF7FDFC0444022240F20761284664
:100BC000FFF7F6FC04440D224FF4E0612846FFF7DE
:100BD000EFFC044404E0013402E00F4B00225A60B1
:100BE00045F222639A4500F02E8119D94AF6444312
:100BF0009A4500F0308127D94BF680339A4500F0B2
:100C00001281064B9A4517D1A3224FF4047128464E
:100C1000FFF7CEFC044429E0C0000020007701006B
:100C200042F611339A4500F00681BAF57A5F00F07A
:100C3000F280BAF5FA5F12D083224FF4047128468D
:100C4000FFF7B6FC044411E0BAF5FA4FF4D1632281
:100C50004FF404712846FFF7ABFC044406E003227E
:100C60004FF404712846FFF7A3FC0444B6F5006F67
:100C700000F0F98044F210024FF440712846FFF76B
:100C800097FC0444002240F202312846FFF790FC12
:100C900004440A224FF402712846FFF789FC0444F9
:100CA00001224FF400712846FFF782FC0444002F14
:100CB00000F09880022F00F0DF804FF44072032193
:100CC0002846FFF775FC0444002222212846FFF73E
:100CD0006FFC0444002223212846FFF769FC0444EA
:100CE0004FF4407236212846FFF762FC044443F279
:100CF000030201212846FFF75BFC0444B6F5006FB0
:100D000000F0EE80052251212846FFF751FC0444F3
:100D100043F2033201212846FFF74AFC0444222211
:100D200060212846FFF744FC044449F625724C2113
:100D30002846FFF73DFC04440F2000F06DFB012224
:100D40002D212846FFF734FC044401222E21284699
:100D5000FFF72EFC04444FF44C7203212846FFF7A2
:100D600027FC0444332254212846FFF721FC044485
:100D700040F2011000F050FBEE2260212846FFF700
:100D800017FC0444C0224FF4C2612846FFF710FC50
:100D90000444C02240F211612846FFF709FC0444D4
:100DA00010224FF484612846FFF702FC0444C0225D
:100DB00040F212612846FFF7FBFB0444C02240F2D8
:100DC00013612846FFF7F4FB0444102240F222414D
:100DD0002846FFF7EDFB044449464046FFF77AFCFE
:100DE00043F20337A6B1B6F5007F18BFB6F5807F92
:100DF0007ED0B6F5006F00F09280B6F5806F18BF18
:100E0000B6F5407F00F0AA8049464046FFF762FCF5
:100E10002046BDE8F08733224FF404712846FFF7DF
:100E2000C7FB044422E783224FF404712846FFF7EE
:100E3000BFFB04441AE713224FF404712846FFF75E
:100E4000B7FB044412E743224FF404712846FFF72E
:100E5000AFFB04440AE773224FF404712846FFF7FE
:100E6000A7FB044402E744F218024FF440712846FD
:100E7000FFF79EFB044405E74FF480722D212846BE
:100E8000FFF796FB04444FF480722E212846FFF7AB
:100E90008FFB04443C4B1B78B3B14FF401424FF439
:100EA00088712846FFF784FB0444374B00221A70F0
:100EB0004FF4967000F0B0FA00224FF48461284697
:100EC000FFF776FB0444F8E648F208124FF4887105
:100ED0002846FFF76DFB0444322000F09DFAEBE753
:100EE00040F2052251212846FFF762FB04440FE738
:100EF00047F0130201212846FFF75AFB044402225F
:100F00004FF4C4612846FFF753FB04444FF460528A
:100F100040F211412846FFF74BFB044474E747F0C9
:100F2000130201212846FFF743FB044402224FF439
:100F3000C4612846FFF73CFB04444FF4C0524FF411
:100F400082612846FFF734FB04444FF4C05240F25C
:100F500011412846FFF72CFB044455E70B221821CA
:100F60002846FFF725FB04440B221A212846FFF7E9
:100F70001FFB04444FF4C0524FF482612846FFF730
:100F800017FB044440E700BF0000002038B50229E9
:100F90004DD0032970D0012924D0C5B240F20332CC
:100FA00005212846FFF704FB0446012240F20161B7
:100FB0002846FFF7FDFA0444012240F20261284668
:100FC000FFF7F6FA0444002240F204612846FFF7D6
:100FD000EFFA0444002240F205612846FFF7E8FAE0
:100FE000204423E0C5B240F60C4205212846FFF715
:100FF000DFFA0446002240F201612846FFF7D8FAE2
:101000000444002240F202612846FFF7D1FA04446A
:10101000022240F204612846FFF7CAFA0444022281
:1010200040F205612846FFF7C3FA204438BDC5B237
:1010300040F2033205212846FFF7BAFA044601229E
:1010400040F201612846FFF7B3FA0444012240F25E
:1010500002612846FFF7ACFA0444002240F2046122
:101060002846FFF7A5FA0444002240F2056128460D
:10107000FFF79EFA2044D9E7C5B240F60F7205216A
:101080002846FFF795FA0446012240F201612846FE
:10109000FFF78EFA0444012240F202612846FFF76E
:1010A00087FA0444022240F204612846FFF780FADE
:1010B0000444022240F205612846FFF779FA2044F1
:1010C000B4E7000008B545F2226399424AD012D92C
:1010D0004AF6444399424CD01ED94BF6803399428C
:1010E00032D0274B994210D1A3224FF40471C0B2E1
:1010F000FFF75EFA20E042F6113399422BD0B1F5AA
:101100007A5F1AD0B1F5FA5F10D083224FF40471E0
:10111000C0B2FFF74DFA0FE0B1F5FA4FF5D16322F7
:101120004FF40471C0B2FFF743FA05E003224FF415
:101130000471C0B2FFF73CFA08BD33224FF40471CA
:10114000C0B2FFF735FAF7E783224FF40471C0B25B
:10115000FFF72EFAF0E713224FF40471C0B2FFF745
:1011600027FAE9E743224FF40471C0B2FFF720FAEF
:10117000E2E773224FF40471C0B2FFF719FADBE71C
:101180000077010008B500221146C0B2FFF710FA3F
:10119000024B00221A605A6008BD00BFC000002048
:1011A00010B5044600F0FEF80021E0B200F01AF994
:1011B00010BD08B500F0FEF808BD000070B58AB09B
:1011C000444B834243D0444C236B43F002032363DC
:1011D000236B03F002030393039B4FF48073059387
:1011E00012230693002507950223089304230993ED
:1011F0003A4E05A9304601F035F94FF400730593D6
:1012000005A9304601F02EF9236C43F40013236442
:10121000236C03F400130493049B236A43F4001328
:101220002362236A23F4001323622A460F211F201E
:1012300000F018FE1F2000F047FE2A460F21202054
:1012400000F010FE202000F03FFE0AB070BD224CDE
:10125000236B43F080032363236B03F0800301932C
:10126000019B8023059312230693002507950223F3
:101270000893042309931A4E05A9304601F0F2F8A9
:101280004FF48073059305A9304601F0EBF8236C09
:1012900043F400032364236C03F400030293029BD2
:1012A000236A43F400032362236A23F400032362C6
:1012B0002A460F21482000F0D5FD482000F004FE0A
:1012C0002A460F21492000F0CDFD492000F0FCFD09
:1012D000BBE700BFC8000020003802400004024005
:1012E000001C024010B5044602F0F3F8A0B90C4B04
:1012F0009C4212D00B4B23600B4B63600023A36016
:101300000122E26023616361E36123622046FFF70B
:1013100055FF204601F0F6FB10BD044B2360EBE7C0
:10132000C80000200054004032279140005C00407B
:1013300010B5044601F044FC2046FFF7D3FF10BD72
:1013400070B584B006460C464FF47A710291BDF830
:101350002410019108990091214601F04AFC0546AC
:1013600010B9284604B070BD21463046FFF7E0FFB3
:10137000F7E770B584B006460C464FF47A710291D7
:10138000BDF82410019108990091214601F008FD53
:10139000054610B9284604B070BD21463046FFF717
:1013A000C7FFF7E708B50248FFF79CFF08BD00BF7D
:1013B000C80000207047000010B584B013021BB2B3
:1013C00043EA122204AC24F8022D02230193009474
:1013D0000A4601460248FFF7B3FF04B010BD00BF44
:1013E000C800002000B585B004AA002322F8023D01
:1013F0000223019300920A4601460648FFF7B9FF0F
:10140000BDF80E30180200B240EA132080B205B0D9
:101410005DF804FBC800002008B500F061FB08BDC2
:1014200008B50548054B03601A6822F480321A603B
:1014300003F016FA08BD00BF60010020045C014003
:1014400008B5054B054840F8843F1A6822F48032FD
:101450001A6003F005FA08BD245C01406001002019
:1014600010B5184C184B23601A6822F480321A60A9
:10147000E061002363606361236380226263A3638E
:101480000122E263A3604FF400512161A261402276
:101490002264202262644FF48032A264E3644FF439
:1014A000802222656365A3650423E3650F23236619
:1014B000204603F0B9F82268136843F480331360C0
:1014C00010BD00BF60010020045C01402DE9F04F19
:1014D00083B015463A4C3B4B23601A6822F48032A5
:1014E0001A600195E56160600025656125634FF034
:1014F000800BC4F834B0A5630126E663A5604FF401
:1015000000532361A6614FF0400AC4F840A04FF099
:101510002009C4F844904FF48038C4F84880E5644A
:101520004FF4802727656565A5650420E065009177
:101530002166204603F078F8234BC4F884301A68FB
:1015400022F480321A60019BC4F8A0300323C4F84F
:101550008830C4F89850C4F8B450C4F8B8B0C4F88F
:10156000BC50C4F8C060C4F88C60C4F89450C4F88F
:101570009C60C4F8C4A0C4F8C890C4F8CC80C4F877
:10158000D050C4F8D470C4F8D850C4F8DC50042348
:10159000C4F8E030009AC4F8E42004F1840003F0B9
:1015A00043F82268136843EA08031360D4F88420E0
:1015B000136843EA0803136003B0BDE8F08F00BF6F
:1015C00060010020045C0140245C0140704708B5C4
:1015D000FFF7FCFF08BD08B504F046F808BD7047EA
:1015E0002DE9F0478AB08246554C636C43F4000302
:1015F0006364636C03F400030093009B236B43F468
:1016000080732363236B03F480730193019B236B2B
:1016100043F480732363236B03F480730293029B70
:10162000236B43F480732363236B03F4807303936E
:10163000039B802305934FF00209CDF818904FF0DB
:101640000008CDF81C80032708970A2609963D4D0F
:1016500005A9284600F006FF20230593CDF8189031
:10166000CDF81C800897099605A9284600F0FAFED7
:1016700040230593CDF81890CDF81C800897099663
:1016800005A9284600F0EEFE10230593CDF818902A
:10169000CDF81C800897099605A9284600F0E2FEBF
:1016A000236B43F480032363236B03F480030493CD
:1016B000049BDAF80020244B9A420AD000220E2123
:1016C0003C2000F0CFFB3C2000F0FEFB0AB0BDE860
:1016D000F0871E4B4FF0C062C3F80C214022C3F8C4
:1016E0001021C3F814814FF48061C3F818114FF42E
:1016F0000061C3F81C114FF40051C3F820114FF4DE
:101700008071C3F824114FF40031C3F8281104216B
:10171000C3F82C11C3F83071C3F83481C3F8388191
:101720000B4AC3F8082103F58474CAF86C40C3F867
:1017300040A1204600F0DEFC204600F075FCBDE72D
:101740000038024000200240045C0140600100209B
:101750007064024010B5A2B00C4601A802F0DCFC97
:1017600042F6113245F222639C4218BF944214D0D3
:101770004AF644439C4210D04FF4801301934FF437
:10178000800311934FF4AC73029307230493012356
:101790000A9301A802F0EAF90FE04FF480130193D5
:1017A0004FF48003119340F2AD130293022304938C
:1017B00013230A9301A802F0D9F922B010BD00004A
:1017C000F8B506460F461546FFF72AFE154C0022CF
:1017D00029462046FFF7BEFF134B2360204603F047
:1017E000DBFAC0B12846FFF73BFE104B9B68342064
:1017F000984748F69413984212D10C4CE36A34206F
:1018000098470B4B1C6024682B463A4631463420DF
:10181000A0470020F8BD00212046FFF7E1FEE1E7E8
:101820000120F7E760010020045C01400400002073
:10183000B404002008B503F01DFF08BD08B503F08F
:101840001FFF08BD38B50C4C204603F0A5FA05462D
:1018500004F1840003F0A0FA0446122D18BF022DF3
:1018600004D0222C18BF022C03D038BDFFF7B7FEDE
:10187000F7E703F00BFFF8E760010020F0B58BB04D
:101880000746434C636C43F400036364636C03F4E6
:1018900000030193019B236B43F040032363236BFD
:1018A00003F040030293029B4FF4806305930225EB
:1018B00006950026079608950A23099305A9354839
:1018C00000F0D0FD236B43F080032363236B03F010
:1018D00080030393039B4FF40043059306960796FA
:1018E000089505A92C4800F0BDFD236B43F4800347
:1018F0002363236B03F480030493049B3A68274B10
:101900009A4211D000220F21462000F0ABFA462067
:1019100000F0DAFA00220F21282000F0A3FA282094
:1019200000F0D2FA0BB0F0BD1D4BC3F86C61C3F8E8
:101930007061C3F874614FF48061C3F878114FF49B
:101940000061C3F87C114FF40051C3F880114FF4CB
:101950008071C3F884114FF40031C3F88811C3F8C3
:101960008C610321C3F89011C3F89461C3F89861A6
:101970000C4AC3F8682103F5B4743C67C3F8A0713E
:10198000204600F0B7FB204600F04EFBBAE700BF50
:101990000038024000180240001C0240245C014054
:1019A00060010020B8640240B0F5407F18BFB0F578
:1019B000007F01D001207047F8B50D460446FFF7BF
:1019C0003FFD1D4F07F18406002229463046FFF7F0
:1019D000C1FE1A4BC7F88430304603F0DDF9E8B198
:1019E000B4F5007F23D005212A460120FFF76EFDC4
:1019F000134B9B683420984748F69413984218D1AB
:101A00000F4EF36A342098470E4B1E6036682B4603
:101A1000642221463420B0470020F8BD0021304622
:101A2000FFF7DEFD00213046FFF728FFD8E70A2147
:101A3000DAE70120F1E700BF60010020245C0140EB
:101A400004000020B404002008B513460A460146ED
:101A50004FF40070FFF7A8FF08BD000010B5044662
:101A60000E4B18784FF47A73B3FBF0F30C4A1068FE
:101A7000B0FBF3F000F048FA68B90F2C01D901204F
:101A80000AE0002221464FF0FF3000F0EBF9034B53
:101A90005C60002000E0012010BD00BF3400002089
:101AA0003C00002008B5032000F0CAF90020FFF731
:101AB000D5FF03F099FE002008BD0000034A11681D
:101AC000034B1B780B441360704700BFB804002021
:101AD00034000020014B1868704700BFB804002094
:101AE00038B50446FFF7F6FF0546B4F1FF3F02D0D4
:101AF000044B1B781C44FFF7EDFF401BA042FAD3B8
:101B000038BD00BF340000204A4B5A6822F44032EE
:101B10005A605A6841680A435A600268536823F45D
:101B20008073536002685368016943EA012353607C
:101B30000268536823F040735360026853688168F9
:101B40000B4353600268936823F400639360026858
:101B50009368C1680B439360826A374B9A424BD0BB
:101B60000268936823F07063936002689368816AE7
:101B70000B4393600268936823F0405393600268BC
:101B80009368C16A0B4393600268936823F0020371
:101B9000936002689368816943EA4103936090F817
:101BA0002030002B33D10268536823F40063536064
:101BB0000268D36A23F47003D3620168CB6AC269F6
:101BC000013A43EA0253CB620268936823F400733C
:101BD00093600268936890F8301043EA4123936061
:101BE0000268936823F48063936002689368416994
:101BF00043EA8123936070470268936823F070631F
:101C000093600268936823F040539360BCE70268D6
:101C1000536843F4006353600268536823F46043DD
:101C2000536001684B68426A013A43EA42334B60B1
:101C3000BEE700BF002301400100000F28B310B52C
:101C40000446036C43B1236C13F0100F0BD001203A
:101C5000002384F83C3010BD03F0DAF800236364FD
:101C600084F83C30EFE7226C094B134043F0020349
:101C700023642046FFF748FF00206064236C23F0B4
:101C8000030343F001032364E2E70120704700BF30
:101C9000FDEEFFFF30B482B00023019390F83C309A
:101CA000012B00F0C080012380F83C300B68092B29
:101CB00022D90568EA689BB203EB43031E3B072465
:101CC00004FA03F322EA0303EB600B68574A9342DA
:101CD0000BD00568EA688C689BB203EB43031E3B9C
:101CE00004FA03F31343EB601BE00268D3688C68CB
:101CF00043EA0463D36014E005682A699BB203EBEE
:101D00004303072404FA03F322EA03032B61056863
:101D10002A698C680B8803EB430304FA03F313432B
:101D20002B614B68062B24D805686A6B03EB830391
:101D3000053B1F2404FA03F322EA03036B630568DF
:101D40006A6B4B6803EB8303053B0C8804FA03F3CF
:101D500013436B630268364B9A423AD00268344BA5
:101D60009A423FD0002380F83C30184602B030BC85
:101D700070470C2B16D805682A6B03EB8303233BB3
:101D80001F2404FA03F322EA03032B6305682A6B7A
:101D90004B6803EB8303233B0C8804FA03F31343E0
:101DA0002B63D7E70568EA6A03EB8303413B1F24F3
:101DB00004FA03F322EA0303EB620568EA6A4B685C
:101DC00003EB8303413B0C8804FA03F31343EB62F8
:101DD000C0E70B68122BC1D1164A536843F4800345
:101DE0005360BBE70B68114A112B18BF9342B9D15E
:101DF000104A536843F4000353600A680B4B9A423D
:101E0000B0D10D4B1B680D4AA2FB03239B0C03EBC7
:101E100083035A00019202E0019B013B0193019B65
:101E2000002BF9D19EE70220A0E700BF12000010AE
:101E300000200140002301403C00002083DE1B43C2
:101E40000649CB6823F4E0631B041B0C000200F47A
:101E5000E0600343024A1A43CA60704700ED00E0A5
:101E60000000FA0530B4154BDB68C3F30223C3F15D
:101E70000704042C28BF04241D1D062D14D9033B80
:101E80004FF0FF3505FA04F421EA0401994005FA00
:101E900003F322EA03031943002807DB0901C9B24F
:101EA000074B195430BC70470023E9E700F00F00DE
:101EB0000901C9B2034B1954F4E700BF00ED00E07B
:101EC00000E400E014ED00E0002807DB00F01F0252
:101ED000400901239340024A42F82030704700BF76
:101EE00000E100E000280CDB00F01F0240090123A4
:101EF00093402030034A42F82030BFF34F8FBFF3A6
:101F00006F8F704700E100E00138B0F1807F0AD2A6
:101F1000064B5860064AF02182F823100020986092
:101F200007221A6070470120704700BF10E000E0F0
:101F300000ED00E030B405682C6824F480242C60A7
:101F4000046863608368402B05D003689960036868
:101F5000DA6030BC704703689A600368D960F8E7BC
:101F60000268D3B2103B0949A1FB03131B090849BE
:101F7000C95CC165032B04D8064B13408365806D93
:101F80007047044B134004338365F8E7ABAAAAAA51
:101F9000AC68000800FCFFFF836A826992B9012BDC
:101FA0000AD01BB1022B01D000207047C36A13F086
:101FB000807F2CD100207047C36AB3F1C07F28D046
:101FC00000207047B2F5005F05D0022B29D9032B02
:101FD00015D000207047032B03D8DFE803F01C0462
:101FE0001C0A00207047C36A13F0807F15D10020BF
:101FF0007047C36AB3F1C07F11D000207047C36A35
:1020000013F0807F01D0012070470020704701202D
:102010007047012070470120704701207047012060
:10202000704701207047000070B50446FFF752FD6D
:10203000002C5BD00546002384F83430022384F85A
:1020400035302268136823F00103136023681A688F
:1020500012F0010F0AD0FFF73DFD401B0528F5D90E
:1020600020236365032084F8350070BD1A6820487A
:1020700010406168A2680A43E1680A4321690A4383
:1020800061690A43A1690A43E1690A43216A0A4373
:102090000243616A04291ED01A602668756925F01A
:1020A0000705636A1D43042B07D1A36A1D43E36A36
:1020B0001BB12046FFF770FF90B975612046FFF70E
:1020C0004FFFE26D3F239340836000206065012352
:1020D00084F83530C9E7E16A206B01430A43DBE746
:1020E00040236365012084F83500BEE70120BCE78A
:1020F0003F8010F000282CD038B5044690F83530D9
:10210000DBB2022B27D00268136823F001031360AF
:10211000036800251D6003685D6003689D600368B7
:10212000DD6003681D61036821225A61FFF718FF13
:10213000E26D3F2393408360E56325646564A56495
:10214000E5642565656584F8355084F83450284683
:1021500038BD012070470220FAE738B5856D90F848
:102160003440012C31D0012480F8344090F83540BF
:10217000E4B2012C04D0002380F83430022038BDB2
:102180000446022084F83500002060652046FFF7F1
:10219000D1FEE26D3F239340AB602268136843F0A9
:1021A000160313602268536943F080035361236C64
:1021B00023B12268136843F0080313602268136890
:1021C00043F0010313600020D9E70220D7E770B580
:1021D0000446866DFFF77EFC94F83530DBB2022BA7
:1021E00006D080236365002384F83430012070BD5D
:1021F00005462268136823F01603136022685369AA
:1022000023F080035361236CE3B12268136823F049
:10221000080313602268136823F001031360236826
:102220001B6813F0010F11D0FFF754FC401B052869
:10223000F5D920236365002384F83430032084F823
:102240003500D4E7A36C002BDFD1E3E7E26D3F2339
:102250009340B360002084F83400012384F83530C3
:10226000C5E790F83530DBB2022B03D080234365FD
:1022700001207047052380F835300268136823F089
:102280000103136000207047F0B583B004460023BB
:102290000193724B1D68724BA3FB0535AD0A876D28
:1022A0003E68C26D08239340334210D003681A6819
:1022B00012F0040F0BD01A6822F004021A60C26DEB
:1022C00008239340BB60436D43F001034365E26D17
:1022D00001239340334209D02268526912F0800FE3
:1022E00004D0BB60636D43F002036365E26D0423B9
:1022F0009340334209D02268126812F0020F04D0D2
:10230000BB60636D43F004036365E26D102393408B
:10231000334224D02268126812F0080F1FD0BB602D
:1023200023681A6812F4802F0DD01B6813F4002F55
:1023300004D1236C9BB12046984710E0A36C73B185
:10234000204698470BE01A6812F4807F03D11A6880
:1023500022F008021A60236C0BB120469847E26D08
:1023600020239340334255D02268126812F0100F98
:1023700050D0BB6094F83530DBB2052B0ED023680B
:102380001A6812F4802F33D01B6813F4002F2AD15F
:10239000636C002B3ED0204698473BE022681368D0
:1023A00023F0160313602268536923F080035361FE
:1023B000236CA3B12268136823F008031360E26D55
:1023C0003F239340BB60002384F83430012384F81A
:1023D0003530236D002B3FD0204698473CE0A36C5E
:1023E000002BE7D1EBE7E36BA3B12046984711E060
:1023F0001A6812F4807F09D11A6822F010021A605C
:10240000002384F83430012384F83530E36B0BB1BA
:1024100020469847636DFBB1636D13F0010F17D031
:10242000052384F835302268136823F00103136014
:10243000019B01330193AB4204D823681B6813F05E
:10244000010FF5D1002384F83430012384F83530AE
:10245000E36C0BB12046984703B0F0BD3C00002070
:10246000B5814E1B00230F2B00F2E280F0B482B046
:1024700039E0092200E00022B2403A4302346D4EB6
:1024800046F824206C4A1468EA4302EA04064F68BE
:1024900017F4803F01D045EA0406674C2660646863
:1024A00002EA04064F6817F4003F01D045EA04062B
:1024B000614C6660A46802EA04064F6817F4801F46
:1024C00001D045EA04065C4CA660E46822404E68F0
:1024D00016F4001F01D045EA0402574CE2600133B4
:1024E0000F2B00F2A28001229A400C6804EA020538
:1024F000AA42F4D14C68122C18BF022C10D1DE086D
:10250000083650F826C003F00704A7000F24BC408B
:102510002CEA040C0C69BC4044EA0C0440F8264048
:1025200004685F000326BE40F64306EA040C4C68CC
:1025300004F00304BC4044EA0C0404604C6804F159
:10254000FF3C112C18BFBCF1010F01D9122C11D185
:10255000846806EA040CCC68BC4044EA0C0484603D
:10256000446824EA020C4C68C4F300129A4042EA20
:102570000C024260C26816408A68BA403243C260A8
:102580004A6812F0805FAAD02C4A546C44F480440C
:102590005464526C02F480420192019A9C08A61C79
:1025A000244A52F8267003F0030296000F22B2402C
:1025B00027EA0207224A90423FF45DAF02F58062AB
:1025C000904222D002F58062904220D002F58062D3
:1025D00090421ED002F5806290421CD002F58062CB
:1025E00090421AD002F58062904218D002F58062C3
:1025F000904216D002F58062904214D002F58062BB
:1026000090423FF436AF0A2236E7012234E7022235
:1026100032E7032230E704222EE705222CE70622C8
:102620002AE7072228E7082226E702B0F0BC704715
:10263000704700BF00380140003C014000380240B4
:102640000000024000230F2B00F29380F0B529E038
:10265000092700E0002707FA05F5B54270D00568A4
:102660005E000324B440E44325400560DD080835DE
:1026700050F8256003F007074FEA870C0F2707FA89
:102680000CF726EA070640F8256085682540856036
:10269000456825EA02024260C2681440C460013302
:1026A0000F2B65D801229A4002EA0104A242F6D11A
:1026B0004FEA930C0CF102062E4D55F8266003F0FC
:1026C0000305AD000F2707FA05FE0EEA06062A4F9E
:1026D000B842BFD007F58067B84221D007F58067C0
:1026E000B8421FD007F58067B8421DD007F5806754
:1026F000B8421BD007F58067B84219D007F580674C
:10270000B84217D007F58067B84215D007F5806743
:10271000B84213D007F58067B84299D00A279AE7E4
:10272000012798E7022796E7032794E7042792E713
:10273000052790E706278EE707278CE708278AE713
:102740000C4E0CF1020556F8257027EA0E0746F8E4
:1027500025700A4D2E68E44326402E606E682640A0
:102760006E60AE682640AE60EE683440EC6076E79E
:10277000F0BD70470038014000000240003C0140BD
:1027800012B90904816170478161704703689A69D1
:1027900012F0020F01D000229A6203689A6912F0C7
:1027A000010F03D19A6942F001029A61704770B437
:1027B000039E05686868740D04F4806444F07F74B7
:1027C00044F4583444F47F7444F0030420EA0400D1
:1027D000C1F3090141EA02411943314301436960F0
:1027E00070BC704711F0010F09D090F8413003F030
:1027F0002803282B01D0F22302E0422300E000232B
:1028000011F0020F2CD010B443F0440490F8412092
:1028100002F02802282A18D043F0F40311F0040F24
:1028200001D043F0B80301F01102112A0FD001F0DA
:10283000120112290ED012290FD001680A6822EA6B
:1028400003030B605DF8044B70472346E6E743F053
:102850009003ECE743F02003EDE743F04003ECE79F
:1028600011F0040F01D043F0B80301F01102112A56
:102870000BD001F0120112290AD012290BD00168E5
:102880000A6822EA03030B60704743F09003F0E705
:1028900043F02003F1E743F04003F0E770B504464E
:1028A0000D46164603689B6913F0100F1CD0236871
:1028B0009A6912F0200F19D1B5F1FF3FF7D0FFF759
:1028C00009F9801BA84201D8002DF0D1636C43F0B8
:1028D00020036364202384F84130002384F84230CD
:1028E00084F84030012020E000201EE01022DA6150
:1028F00023682025DD612046FFF748FF22685368E2
:1029000023F0FF7323F48B3323F4FF7323F00103CD
:102910005360636C43F00403636484F84150002304
:1029200084F8423084F84030012070BD70B5044610
:102930000D46164623689B6913F0020F1DD13246DF
:1029400029462046FFF7AAFFC8B9B5F1FF3FF1D0ED
:10295000FFF7C0F8801BA84201D8002DEAD1636CB4
:1029600043F020036364202384F84130002384F87B
:10297000423084F84030012000E0002070BD01208A
:10298000FCE7F8B505460F4616461C462B689B69C2
:1029900037EA03030CBF01230023B34218D1B4F17B
:1029A000FF3FF3D0FFF796F8069BC01AA04201D86C
:1029B000002CEBD16B6C43F020036B64202385F873
:1029C0004130002385F8423085F84030012000E096
:1029D0000020F8BD70B582B0044616461D46184B5F
:1029E00000934FF08073EAB2FFF7E1FE079A069971
:1029F0002046FFF79BFFE8B9012D0ED12368F6B200
:102A00009E62079B0093069B002280212046FFF7D1
:102A1000B8FF034678B101230DE02368320A9A62B9
:102A2000079A06992046FFF781FF38B92368F6B266
:102A30009E62E6E70123184602B070BD0123FAE763
:102A40000020008070B582B0044616461D46184B23
:102A500000930023EAB2FFF7AAFE079A06992046E0
:102A6000FFF764FFE8B9012D0ED12368F6B29E622C
:102A7000079B0093069B002240212046FFF781FF21
:102A8000034678B101230DE02368320A9A62079A5F
:102A900006992046FFF74AFF38B92368F6B29E62CE
:102AA000E6E70123184602B070BD0123FAE700BF34
:102AB0000020008070B505460C4616462B689B69C1
:102AC00013F0200F1AD1324621462846FFF7E6FEC2
:102AD000B0B9FEF7FFFF801BA04201D8002CEDD15A
:102AE0006B6C43F020036B64202385F84130002396
:102AF00085F8423085F84030012070BD0020FCE7A9
:102B00000120FAE7002857D010B5044690F841306C
:102B1000002B41D0242384F841302268136823F02D
:102B2000010313606368226823F0706313612268F5
:102B3000936823F400439360E368012B31D0A368CA
:102B4000226843F404439360E368022B2FD0226889
:102B500051681A4B0B4353602268D36823F4004337
:102B6000D360236962691343A169226843EA0123A0
:102B7000D360E369216A22680B43136022681368FB
:102B800043F00103136000206064202384F8413087
:102B9000206384F8420010BD80F8403002F02CFA27
:102BA000B8E7A368226843F400439360CCE7236846
:102BB0004FF400625A60CAE70120704700800002AB
:102BC000A8B110B50446242380F841300268136888
:102BD00023F00103136002F057FA0020606484F8C8
:102BE0004100206384F8420084F8400010BD0120B9
:102BF00070472DE9F04782B0BDF82C6090F8415045
:102C0000EDB2202D40F0BF80B6FA86F56D090A9C22
:102C1000002C08BF0125D5B990F84040012C00F0E8
:102C2000B780984691460D4604464FF0010A80F859
:102C300040A0FEF74FFF07460090192352464FF47D
:102C400000412046FFF79DFE30B101239CE04FF488
:102C500000734364012397E0212384F8413040232B
:102C600084F84230002363640A9A62626685636373
:102C700001970C9B009343464A4629462046FFF79E
:102C8000A9FE70B9638D9BB2FF2B0FD9FF2222855D
:102C9000002300934FF0807329462046FFF787FDFD
:102CA00021E0002384F8403053466DE0628D92B2FB
:102CB0002285002300934FF00073D2B229462046AC
:102CC000FFF775FD0FE0628D92B22285002300931D
:102CD0004FF00073D2B229462046FFF768FD638D9E
:102CE0009BB2002B32D03A460C992046FFF71EFECD
:102CF00000284FD1626A236812789A62636A0133AE
:102D00006362638D013B9BB26385238D013B9BB264
:102D10002385628D92B2002AE1D0002BDFD100978B
:102D20000C9B002280212046FFF72BFEA0BB638D69
:102D30009BB2FF2BC7D9FF222285002300934FF0BF
:102D4000807329462046FFF732FDC8E73A460C99C2
:102D50002046FFF7AFFE034600BB22682021D16169
:102D60002068426822F0FF7222F48B3222F4FF7254
:102D700022F00102426084F84110002284F84220CF
:102D800084F8402000E00223184602B0BDE8F08736
:102D90000223F9E70123F7E70123F5E70123F3E72E
:102DA0002DE9F04782B0BDF82C6090F84150EDB2AB
:102DB000202D40F0C180B6FA86F56D090A9C002CE2
:102DC00008BF0125D5B990F84040012C00F0B9802A
:102DD000984691460D4604464FF0010A80F840A0FF
:102DE000FEF778FE07460090192352464FF4004143
:102DF0002046FFF7C6FD30B101239EE04FF400737B
:102E00004364012399E0222384F84130402384F86D
:102E10004230002363640A9A6262668563630197A5
:102E20000C9B009343464A4629462046FFF70AFE7C
:102E300070B9638D9BB2FF2B0FD9FF222285454BC2
:102E400000934FF0807329462046FFF7B0FC21E045
:102E5000002384F8403053466FE0628D92B22285A1
:102E60003C4B00934FF00073D2B229462046FFF747
:102E70009EFC0FE0628D92B22285002300934FF0FA
:102E80000073D2B229462046FFF791FC638D9BB2B6
:102E9000002B34D000970C9B002204212046FFF722
:102EA00070FD00284FD123685A6A636A1A70636AFA
:102EB00001336362238D013B9BB22385628D013A0E
:102EC00092B26285628D92B2002ADFD0002BDDD1F2
:102ED00000970C9B002280212046FFF752FDA0BBEB
:102EE000638D9BB2FF2BC5D9FF222285002300935F
:102EF0004FF0807329462046FFF759FCC6E73A4653
:102F00000C992046FFF7D6FD034600BB226820211E
:102F1000D1612068426822F0FF7222F48B3222F4E1
:102F2000FF7222F00102426084F84110002284F80E
:102F3000422084F8402000E00223184602B0BDE899
:102F4000F0870223F9E70123F7E70123F5E70123DF
:102F5000F3E700BF0024008008B5036899691A6888
:102F6000436B03B1984708BD7047704710B50446DE
:102F7000002380F8423090F84130DBB2292B05D095
:102F800090F84130DBB22A2B0FD010BD282380F8F7
:102F90004130212303630121FFF724FC002384F83F
:102FA00040302046FFF7E0FFEFE7282380F841306C
:102FB000222303630221FFF715FC002384F840302D
:102FC0002046FFF7D2FFE0E77047F8B590F84130B0
:102FD00003F02803282B06D003680822DA610023B7
:102FE00080F84030F8BD044603689E69C6F3004689
:102FF0009A69120C02F0FE059A68C2F30902DF68B2
:1030000007F0FE07C168022921D185EAD21515F023
:10301000060F10D1816C01318164816C0229E1D1EC
:10302000002181640820D86184F840103146204690
:10303000FFF7CAFFD6E70421FFF7D4FB002384F88B
:1030400040303A4631462046FFF7BEFFCAE704212A
:10305000FFF7C8FB002384F840302A46314620465B
:10306000FFF7B2FFBEE7704710B50446164BC362C8
:1030700000230363202280F8412080F8423043631C
:1030800011F0040F12D003685A6A436A1A70436A37
:1030900001334362038D4BB1013B0385438D013BFB
:1030A0009BB24385436C43F00403436407212046ED
:1030B000FFF798FB23681022DA61002384F8403080
:1030C0002046FFF7D0FF10BD0000FFFF704770479C
:1030D00010B5044690F84130002280F8422036486E
:1030E000E0626285626C11436164283BDBB2022BB3
:1030F00022D803212046FFF775FB282384F84130AE
:10310000002323632D4B636323681A6812F4804FF6
:1031100022D01A6822F480421A60A36B5BB1284A5D
:103120001A65002384F84030A06BFFF79AF810B1BD
:10313000A06B036D984710BD07212046FFF752FB97
:1031400094F84130DBB2602B02D0202384F8413068
:10315000002323636363D7E71A6812F4004F14D087
:103160001A6822F400421A60E36B002BE3D0144A81
:103170001A65002384F84030E06BFFF772F80028EE
:10318000D9D0E06B036D9847D5E794F84130DBB2B6
:10319000602B06D0002384F840302046FFF796FFCE
:1031A000C9E7202384F84130002384F840302046CA
:1031B000FFF78DFFBFE700BF0000FFFFE53200080B
:1031C000A934000870B504460D4603681E68202225
:1031D000DA610721FFF706FB2268536843F40043D6
:1031E00053602268536823F0FF7323F48B3323F476
:1031F000FF7323F0010353602046FFF7C7FA16F46C
:10320000804F3AD0A36B1BB11B685B689BB2638590
:1032100015F0040F10D025F0040523685A6A636A7C
:103220001A70636A01336362238D2BB1013B2385DE
:10323000638D013B9BB26385638D9BB21BB1636C55
:1032400043F0040363640023236384F84230636320
:10325000636CEBB9E36A13F5803F27D194F84130F2
:10326000DBB2222B31D0202384F84130002384F8B4
:1032700040302046FFF778FE26E016F4004FC7D016
:10328000E36B002BC4D01B685B689BB26385BFE710
:10329000616C2046FFF71CFF94F84130DBB2282B0D
:1032A00012D129462046FFF7DFFE0DE02046FFF74A
:1032B0005DFE0B4BE362202384F84130002384F849
:1032C00040302046FFF7CFFE70BD202384F8413008
:1032D000002384F840302046FFF747FEF4E700BFA4
:1032E0000000FFFF70B51646C26A90F84030012B0F
:1032F00000F0A38004460D46012380F8403011F011
:10330000100F45D016F0100F42D0438D9BB24BBB2F
:1033100090F84130DBB2282B11D094F84130DBB269
:10332000292B12D023681022DA6115F0200F02D069
:1033300016F0200F7CD1002084F8400070BDB2F15F
:10334000007FEAD1FFF790FEEFE712F5803FE9D06A
:1033500023681022DA612046FFF718FA2046FFF7AB
:1033600005FEE2E703681021D961436C43F00403D2
:103370004364B2F1807F14BF00230123002A14BFED
:103380001A460122002AD0D0416CFFF7A1FECCE7FB
:1033900015F0040F20D016F0040F1DD0638D9BB2E2
:1033A0007BB125F004052368596A636A1970636A62
:1033B00001336362238D013B2385638D013B9BB207
:1033C0006385638D9BB2002BAFD112F5803FACD0EB
:1033D0002046FFF7CBFDA8E715F0080F02D016F046
:1033E000080F17D115F0020F9FD016F0020F9CD0D6
:1033F000638D9BB29BB1626A236812789A62636A9A
:1034000001336362638D013B9BB26385238D013B76
:1034100023858AE729462046FFF7D7FD85E7002A5E
:1034200018BFB2F1807F80D12046FFF79FFD7CE777
:1034300029462046FFF7C6FE7DE702207EE710B54D
:1034400002689369116813F4807F09D011F0800F2E
:1034500006D0446C44F0010444644FF48074D46199
:1034600013F4806F0AD011F0800F07D0426C42F045
:103470000802426402684FF48064D46113F4007F50
:103480000AD011F0800F07D0436C43F0020343646D
:1034900003684FF40072DA61416C11F00B0F00D138
:1034A00010BDFFF715FEFBE708B5806B826B0023AC
:1034B0001365C26B136590F84130DBB2602B02D00C
:1034C000FFF704FE08BD202380F84130FFF7FFFD21
:1034D000F8E790F84100704790F84130DBB2202BBC
:1034E00024D190F84030012B22D0012380F84030C5
:1034F000242380F841300268136823F0010313602D
:103500000268136823F48053136002681368194338
:1035100011600268136843F001031360202380F8F0
:103520004130002380F84030184670470220704731
:103530000220704790F84130DBB2202B22D190F866
:103540004030012B20D0012380F84030242380F824
:1035500041300268136823F00103136002681368A6
:1035600023F4706343EA012111600268136843F099
:1035700001031360202380F84130002380F840309D
:10358000184670470220704702207047002800F05C
:10359000DB8170B582B00446036813F0010F29D0B7
:1035A000A24B9B6803F00C03042B1AD09F4B9B6823
:1035B00003F00C03082B0FD06368B3F5803F40D0B5
:1035C000002B54D1994B1A6822F480321A601A6881
:1035D00022F480221A6039E0944B5B6813F4800F68
:1035E000EAD0924B1B6813F4003F03D06368002BB2
:1035F00000F0AC81236813F0020F75D08B4B9B68F1
:1036000013F00C0F5ED0894B9B6803F00C03082B62
:1036100053D0E368002B00F08A80844A136843F09B
:1036200001031360FEF756FA0546804B1B6813F042
:10363000020F73D1FEF74EFA401B0228F5D9032082
:1036400087E17A4A136843F48033136063682BB3CD
:10365000FEF740FA0546754B1B6813F4003FC9D1CD
:10366000FEF738FA401B6428F5D9032071E1B3F561
:10367000A02F09D06D4B1A6822F480321A601A68A4
:1036800022F480221A60E1E7684B1A6842F4802233
:103690001A601A6842F480321A60D7E7FEF71AFA05
:1036A0000546624B1B6813F4003FA3D0FEF712FAE5
:1036B000401B6428F5D903204BE15C4B5B6813F495
:1036C000800FA6D1594B1B6813F0020F04D0E3689A
:1036D000012B01D001203CE1544A136823F0F80388
:1036E000216943EAC1031360236813F0080F46D031
:1036F000636983B34D4A536F43F001035367FEF789
:10370000E9F90546494B5B6F13F0020F37D1FEF71D
:10371000E1F9401B0228F5D903201AE1434A136856
:1037200023F0F803216943EAC1031360DCE73F4A51
:10373000136823F001031360FEF7CCF905463B4BF9
:103740001B6813F0020FCFD0FEF7C4F9401B02280C
:10375000F5D90320FDE0354A536F23F00103536789
:10376000FEF7B8F90546314B5B6F13F0020F06D038
:10377000FEF7B0F9401B0228F5D90320E9E02368E1
:1037800013F0040F7ED0294B1B6C13F0805F1ED109
:10379000264B1A6C42F080521A641B6C03F0805363
:1037A0000193019B0125224B1B6813F4807F10D0ED
:1037B000A368012B21D0002B3CD11C4B1A6F22F0A7
:1037C00001021A671A6F22F004021A671AE0002534
:1037D000E9E7174A136843F480731360FEF77AF938
:1037E0000646134B1B6813F4807FE1D1FEF772F994
:1037F000801B6428F5D90320ABE00C4A136F43F01B
:1038000001031367A3685BB3FEF764F90646074B31
:103810001B6F13F0020F34D1FEF75CF9801B41F2ED
:1038200088339842F3D9032093E000BF0038024068
:1038300000700040052B09D0484B1A6F22F001029E
:103840001A671A6F22F004021A67DBE7434B1A6FFC
:1038500042F004021A671A6F42F001021A67D1E7B8
:10386000FEF738F906463D4B1B6F13F0020F08D0E8
:10387000FEF730F9801B41F288339842F3D90320D8
:1038800067E0F5B9A369002B62D0344A926802F070
:103890000C02082A5FD0022B19D0304A136823F09B
:1038A00080731360FEF716F904462C4B1B6813F067
:1038B000007F47D0FEF70EF9001B0228F5D9032040
:1038C00047E0264A136C23F080531364DAE7234A57
:1038D000136823F080731360FEF7FCF805461F4B56
:1038E0001B6813F0007F06D0FEF7F4F8401B022897
:1038F000F5D903202DE0E369226A1343626A43EAA3
:103900008213A26A5208013A43EA0243E26A43EA96
:10391000026343F00053114A5360136843F080730D
:103920001360FEF7D7F804460C4B1B6813F0007FBA
:1039300006D1FEF7CFF8001B0228F5D9032008E0D6
:10394000002006E0002004E001207047012000E094
:10395000002002B070BD0120FBE700BF003802402C
:10396000264B9B6803F00C03042B44D0082B01D09A
:10397000234870472DE9F04B204B5A6802F03F0274
:103980005B6813F4800F13D01C4B5968C1F3881186
:1039900000231C48A1FB0001FCF73AFC174B5B68B5
:1039A000C3F3014301335B00B0FBF3F0BDE8F08BE0
:1039B000124B5B68C3F388131E4600275C01002589
:1039C000E41A65EB0705A90141EA9461A001001B17
:1039D00061EB0501CB0043EA5073C400A01943EB2F
:1039E00007018B0243EA90538402204619460023C4
:1039F000FCF70EFCD2E70348704700BF00380240D6
:103A00000024F40040787D01002800F0A28070B509
:103A10000446524B1B6803F00F038B420CD24F4AF3
:103A2000136823F00F030B431360136803F00F03B5
:103A30008B4201D0012070BD236813F0020F17D014
:103A400013F0040F04D0464A936843F4E0539360A4
:103A5000236813F0080F04D0414A936843F460438D
:103A600093603F4A936823F0F003A0680343936098
:103A70000D46236813F0010F31D06368012B20D06D
:103A8000022B25D0364A126812F0020F63D0344957
:103A90008A6822F0030213438B60FEF71BF8064688
:103AA0002F4B9B6803F00C036268B3EB820F16D0B8
:103AB000FEF710F8801B41F288339842F0D90320BA
:103AC000B9E7274A126812F4003FE0D10120B2E7BB
:103AD000234A126812F0007FD9D10120ABE71F4BB7
:103AE0001B6803F00F03AB420CD91C4A136823F088
:103AF0000F032B431360136803F00F03AB4201D095
:103B0000012098E7236813F0040F06D0144A936845
:103B100023F4E053E1680B439360236813F0080F2C
:103B200007D00F4A936823F46043216943EAC10335
:103B30009360FFF715FF0A4B9B68C3F30313094A11
:103B4000D35CD840084B18600020FDF787FF0020A9
:103B500071E70120704701206DE700BF003C024083
:103B600000380240BC6800083C000020F0B583B07B
:103B70000446036813F0010F0CD0AF4B9A6822F48F
:103B800000029A609A68416B0A439A60436BC3B122
:103B9000002600E00026236813F4002F15D0A64A63
:103BA000D2F88C3023F44013E16B0B43C2F88C3015
:103BB000E36BB3F5801F06D0002B00F01B810025BE
:103BC00004E00126E7E70126F6E70025236813F461
:103BD000801F0FD0984AD2F88C3023F44003216C18
:103BE0000B43C2F88C30236CB3F5800F00F00481D6
:103BF00003B90125236813F0807F00D0012613F05C
:103C0000200F40F0FB80236813F0100F0CD08A4B7C
:103C1000D3F88C2022F08072C3F88C20D3F88C204B
:103C2000A16B0A43C3F88C20236813F4804F08D09B
:103C3000814AD2F8903023F44033616E0B43C2F8CE
:103C40009030236813F4004F08D07B4AD2F89030AC
:103C500023F44023A16E0B43C2F89030236813F481
:103C6000803F08D0744AD2F8903023F44013E16EBC
:103C70000B43C2F89030236813F4003F08D06E4A1B
:103C8000D2F8903023F44003216F0B43C2F89030F8
:103C9000236813F0400F08D0674AD2F8903023F021
:103CA0000303616C0B43C2F89030236813F0800F5C
:103CB00008D0614AD2F8903023F00C03A16C0B437A
:103CC000C2F89030236813F4807F08D05A4AD2F8A3
:103CD000903023F03003E16C0B43C2F8903023683E
:103CE00013F4007F08D0544AD2F8903023F0C00378
:103CF000216D0B43C2F89030236813F4806F08D015
:103D00004D4AD2F8903023F44073616D0B43C2F8F2
:103D10009030236813F4006F08D0474AD2F89030EF
:103D200023F44063A16D0B43C2F89030236813F471
:103D3000805F08D0404AD2F8903023F44053E16DC0
:103D40000B43C2F89030236813F4005F08D03A4A5E
:103D5000D2F8903023F44043216E0B43C2F89030E8
:103D6000236813F4800F08D0334AD2F8903023F040
:103D70008063A16F0B43C2F89030236813F4001FD7
:103D80000DD02D4AD2F8903023F00063E16F0B4341
:103D9000C2F89030E36FB3F1006F00F099802368B0
:103DA00013F0080F00D0012513F4802F08D0224A09
:103DB000D2F8903023F04073616F0B43C2F890301B
:103DC000236813F4000F09D01B4AD2F8903023F077
:103DD0008053D4F880100B43C2F89030002E79D174
:103DE0002368B3F1007F75D0002D40F006810020DC
:103DF00003B0F0BD0125E9E60126F9E60E4B1A6C89
:103E000042F080521A641B6C03F080530193019BB3
:103E10000A4A136843F480731360FDF75BFE07469C
:103E2000064B1B6813F4807F0AD1FDF753FEC01BBD
:103E30006428F5D90320DBE7003802400070004019
:103E4000B34B1B6F13F4407315D0226B02F4407216
:103E50009A4210D0AE4B1A6F22F44072196F41F49F
:103E600080311967196F21F4803119671A671B6F48
:103E700013F0010F12D1236B03F44072B2F5407FAF
:103E80001DD0A34A936823F4F8139360A0490B6FE5
:103E9000226BC2F30B0213430B67B4E6FDF71AFE65
:103EA00007469B4B1B6F13F0020FE4D1FDF712FE88
:103EB000C01B41F288339842F3D9032098E7944815
:103EC000826822F4F812934919400A438260DDE7C0
:103ED000012564E78E4A136823F080631360FDF7C1
:103EE000F9FD06468A4B1B6813F0006F06D0FDF7FC
:103EF000F1FD801B6428F5D9032079E7236813F0CE
:103F0000010F13D0636B8BB9814AD2F88430D2F899
:103F10008410606803F4403343EA801301F0706159
:103F20000B43A16843EA0173C2F88430236813F499
:103F3000002F03D0E26BB2F5801F06D013F4801F70
:103F40001ED0236CB3F5800F1AD1714AD2F8843099
:103F5000D2F88410606803F4403343EA8013E068C9
:103F600043EA006301F0E0410B43C2F88430D2F829
:103F70008C3023F01F03616A01390B43C2F88C3087
:103F8000236813F0807F11D0614AD2F88400D2F800
:103F90008410666823691B0443EA861300F070608E
:103FA000034301F0E0410B43C2F88430236813F06F
:103FB000007F0DD0626823691B0443EA8213E26824
:103FC00043EA0263A26843EA0273514AC2F88430AA
:103FD0004F4A136843F080631360FDF77BFD06468C
:103FE0004B4B1B6813F0006F7FF4FEAEFDF772FDC4
:103FF000801B6428F4D90320FAE6454A136823F0AD
:1040000080531360FDF766FD0546414B1B6813F0B6
:10401000005F06D0FDF75EFD401B6428F5D9032044
:10402000E6E6236813F4002F01D0E26B22B113F40B
:10403000801F1DD0236CDBB9354AD2F88830D2F806
:104040008810606903F4403343EA8013A06943EAAF
:10405000006301F0E0410B43C2F88830D2F88C30A5
:1040600023F4F853A16A013943EA0123C2F88C30E2
:10407000236813F4001F03D0E36FB3F1006F31D056
:10408000236813F0080F19D0214AD2F88810D2F80B
:104090008830606903F4403343EA801301F07061B3
:1040A0000B43E16943EA0173C2F88830D2F88C30DF
:1040B00023F44033E16A0B43C2F88C30144A13688E
:1040C00043F080531360FDF705FD0446104B1B6859
:1040D00013F0005F19D1FDF7FDFC001B6428F5D932
:1040E000032085E60A4AD2F88800D2F8881065696C
:1040F000236A1B0443EA851300F07060034301F058
:10410000E0410B43C2F88830BAE7002070E600BFF8
:1041100000380240FFFCFF0F564B0360564BD3F8AC
:104120008420C2F388124260D3F88420C2F3014293
:104130000261D3F88420C2F30362C260D3F8842002
:10414000C2F302728260D3F88820C2F388124261FF
:10415000D3F88820C2F301420262D3F88820C2F368
:1041600003628261D3F88820C2F30272C261D3F87D
:104170008C2002F01F024262D3F88C20C2F304228A
:104180008262D3F88C20C2F30142C262D3F88C2041
:1041900002F44012C263D3F88C2002F4400202649D
:1041A0009A6802F400024263D3F8902002F440328D
:1041B0004266D3F8902002F440228266D3F8902021
:1041C00002F44012C266D3F8902002F44002026763
:1041D000D3F8902002F003024264D3F8902002F05A
:1041E0000C028264D3F8902002F03002C264D3F84B
:1041F000902002F0C0020265D3F8902002F44072D1
:104200004265D3F8902002F440628265D3F8902092
:1042100002F44052C265D3F8902002F44042026694
:10422000D3F8902002F040724267D3F8902002F059
:1042300080628267D3F8902002F00062C267D3F8F0
:10424000902002F08052C0F88020996801F4F811A3
:104250001A6F02F440720A430263D3F88C3013F0F1
:10426000807F03D04FF080738363704700238363A4
:10427000704700BFF1FFFF000038024010B4B0F5F6
:10428000002F07D00023B0F5801F65D018465DF8D9
:10429000044B7047614BD3F88C3003F44013B3F5F3
:1042A000801F2ED0B3F5001F54D00BB10023EAE7D6
:1042B0005A4B5B6813F4800F1BD1584B5A6802F0BD
:1042C0003F02574BB3FBF2F3544AD2F88810C1F3C4
:1042D0000361D2F88840C4F3881403FB04F3B3FBF2
:1042E000F1F3D2F88C20C2F304220132B3FBF2F3D3
:1042F000C9E74A4B5A6802F03F024A4BB3FBF2F35C
:10430000E2E7464B5B6813F4800F1BD1434B5A68BE
:1043100002F03F02424BB3FBF2F3404AD2F8841062
:10432000C1F30361D2F88440C4F3881403FB04F39F
:10433000B3FBF1F3D2F88C2002F01F020132B3FB81
:10434000F2F3A0E7354B5A6802F03F02354BB3FB5E
:10435000F2F3E2E7344B96E7304AD2F88C2002F4CD
:104360004002B2F5800F2DD0B2F5000F53D0002AD5
:104370008CD12A4B5B6813F4800F1BD1274B5A68F2
:1043800002F03F02264BB3FBF2F3244AD2F8880036
:10439000C0F30360D2F88810C1F3881103FB01F366
:1043A000B3FBF0F3D2F88C00C0F304200130B3FB70
:1043B000F0F36BE7194B5A6802F03F02194BB3FB5D
:1043C000F2F3E2E7154B5B6813F4800F1BD1134B3C
:1043D0005A6802F03F02124BB3FBF2F30F4AD2F8D5
:1043E0008400C0F30360D2F88410C1F3881103FB8A
:1043F00001F3B3FBF0F3D2F88C0000F01F000130A2
:10440000B3FBF0F342E7054B5A6802F03F02054B5D
:10441000B3FBF2F3E2E7044B38E700BF0038024099
:104420000024F40040787D010080BB0030B40024FB
:10443000046384634568022D14BF00240124002D09
:1044400008BF0124B4B10024C4634FF480348464F1
:104450004FF6FF74046600244465C36513F0010F32
:104460004DD151B102294DD84FF40034C464002419
:10447000046507E00124C463E7E70024C4644FF443
:1044800080240465032A3FD8DFE802F0020F1822D7
:10449000802444635B085C0104641B014364402383
:1044A000836502291ED000202AE0802444635B0833
:1044B0009D0105645B0143648465F2E7C0244463A5
:1044C0005B089C0104645B01436480238365E8E727
:1044D000E02444635B089C0104645B014364802323
:1044E0008365DEE7012A03D0022A04D0002007E01A
:1044F00010234365F8E708234365002000E001200E
:1045000030BC70470120FBE70120F9E730B40024FC
:10451000046384634568022D14BF00240124002D28
:1045200008BF0124D4B10124C463002484644FF47F
:104530000035C5644FF4802505654465C3654FF6B5
:10454000FF74046603290CD004292CD10121416495
:10455000032A2BD8DFE802F00810171F0024C463D9
:10456000E3E70D214164F3E7802242631B0103640A
:1045700040238365002017E0802242635B010364CF
:104580008265002010E0C02242635B010364802347
:104590008365002008E0E02242635B01036480231E
:1045A0008365002000E0012030BC70470120FBE75C
:1045B00001290AD00123026B082A08D04268023A76
:1045C000012A0CD943F0040070470923F3E742683D
:1045D000012A18BF032AF1D143F01003EEE743F09C
:1045E000600070470E4B1B680E4AA2FB03231B0B97
:1045F0009B0001680A6822F480320A605A1E3BB1AF
:1046000003681968134611F4803FF7D10020704702
:10461000D0F8803043F04003C0F88030032070476A
:104620003C0000201BECCB95002800F0EB8070B51F
:10463000044690F87D30002B00F0B980022384F806
:104640007D302046FFF7CEFFE368012B00F0B680F7
:10465000022B00F0B1800022A368022B00F0B08092
:10466000032B00F0B080012B00F0B28000252368FE
:10467000654866498B4218BF834240F0AC80644B6A
:104680001A60E36923B323685F49604A934218BF05
:104690008B4200F0A380002023685E495E4A93426B
:1046A00018BF8B4200F09F8000EB80004100E3695F
:1046B0005B02B1FBF3F1594BA3FB0123DB0823623F
:1046C00003EB830042008A1A082A01D901332362CE
:1046D0006268022A14BF00230123002A08BF0123B5
:1046E000002B00F08780E36B012B00F081804FF4FA
:1046F000007621680B684A4A1A400A6022681168ED
:104700006368206B0343606B0343A06B0343334335
:104710002B43606A03432069034360690343206AB3
:1047200043EA00530B431360226851683D4B0B4032
:10473000536021684A68A369A06A0343E06A03439F
:1047400013434B6022689168374B0B40936020689D
:104750008268236C013B216D0B43A16C0B43E16C20
:104760000B43616C013943EA0123134383602268E0
:10477000D36823F47D6323F00F031B041B0CD36069
:104780002068C268636DA16D0B43216E43EA01434B
:10479000E16D013943EA01231343C3600020C4F8EB
:1047A0008000012384F87D3084F87C0070BD80F89F
:1047B0007C3000F08BFF41E720224DE710224BE7D1
:1047C0004FF4006553E742F001024FF400654EE7F5
:1047D0004FF480654BE7154B1A6052E74FF4002009
:1047E000FFF74CFD58E74FF48010FFF747FD5BE7FC
:1047F00000267EE7E36B012B01D0002679E74FF41A
:10480000007676E7012070470458014024580140A3
:1048100000580140045C0140245C0140CDCCCCCC6C
:1048200010C005FFF01FFFFF0080F8FF005C014093
:1048300010B50446042911D8DFE801F0030303088A
:1048400008002046FFF7F2FD20B110BD2046FFF71B
:104850005DFEF9E72046FFF7E7FEF6E70120F4E703
:10486000E8B138B50446022380F87D30036800259E
:104870001D6103684FF0FF329A61FFF7B3FE2268B3
:10488000536843F008035360204600F085FFC4F8E6
:10489000805084F87D5084F87C50284638BD012033
:1048A000704770B590F87C30012B56D00446012338
:1048B00080F87C3003681A6812F4003F36D01A681A
:1048C00022F400321A60C06E60B394F87D30DBB21F
:1048D000122B16D00026206F48B394F87D30DBB23F
:1048E000222B24D1FDF773FC08B3236F5B6D802B63
:1048F0001DD0D4F8803043F08003C4F88030012606
:1049000015E0FDF764FC06460028E4D0E36E5B6D1D
:10491000802B09D0D4F8803043F08003C4F8803075
:104920000126D8E70026D6E70026D4E7002623682C
:1049300000251D6123684FF0FF329A612046FFF782
:1049400051FE2268536843F008035360012384F842
:104950007D3084F87C50304670BD0226FBE70000B5
:1049600038B51446B2FA82F25209002908BF012272
:10497000002A4CD190F87D30DBB2012B4AD190F85F
:104980007C30012B48D023460446012280F87C204D
:104990006166A0F86830A0F86A300023C0F8803063
:1049A000122280F87D20C26E1C491164C26E1C491F
:1049B000D163C26E1B49D164C26E13650268B0F840
:1049C00068301C32416EC06EFDF7C7FB0546C8B9A2
:1049D00023681A6812F4803F03D11A6842F48032C7
:1049E0001A6000212046FFF7E3FD2268136918438F
:1049F00010612268136843F400331360002384F8C5
:104A00007C3005E0002384F87C30012500E001259E
:104A1000284638BD0225FBE70225F9E72D4B0008A3
:104A2000F14A00087D4B000838B51446B2FA82F20C
:104A30005209002908BF0122002A4CD190F87D308C
:104A4000DBB2012B4AD190F87C30012B48D02346B1
:104A50000446012280F87C206166A0F86830A0F846
:104A60006A300023C0F88030222280F87D20026F57
:104A70001C491164026F1C49D163026F1B49D16448
:104A8000026F13650168B0F86830426E1C31006F28
:104A9000FDF763FB0546C8B923681A6812F4803F26
:104AA00003D11A6842F480321A6000212046FFF7D1
:104AB0007FFD22681369184310612268136843F46C
:104AC00000331360002384F87C3005E0002384F871
:104AD0007C30012500E00125284638BD0225FBE792
:104AE0000225F9E7734B0008374B00087D4B00089F
:104AF00010B5846B03681B6813F4807F12D100210A
:104B0000A4F86A102268136823F400331360204667
:104B1000FFF74EFD2268136923EA000010610123AC
:104B200084F87D302046FCF752FD10BD08B5806B3F
:104B3000FCF751FD08BD10B5846B03681B6813F4C6
:104B4000807F12D12268136823F4003313600021A0
:104B5000A4F86A102046FFF72BFD2268136923EAA8
:104B600000001061012384F87D302046FCF762FECE
:104B700010BD08B5806BFCF761FE08BD10B5846BF5
:104B8000D4F8803043F08003C4F88030E36E5B6D6E
:104B9000012B03D0236F5B6D012B0DD122681368AD
:104BA00023F4003313602046FFF71CFD012384F833
:104BB0007D300023A4F86A302046FCF743FE10BD88
:104BC00090F87D30002B00F0C08010B504460368DB
:104BD0005A691969186812F0080F06D011F0080F09
:104BE00003D0A36F2046984710BD12F0010F13D0D9
:104BF00011F0010F10D001229A6194F87D30DBB2E0
:104C0000222B00D00222D4F880301343C4F8803025
:104C10002046FCF717FEE7E712F0020F09D011F06B
:104C2000020F06D002229A61636F002BDCD09847F6
:104C3000DAE712F0200F23D011F0200F20D0D4F8A3
:104C4000803043F00403C4F8803010F4003F10D0EB
:104C5000E36E43B9236F002BC6D03C4A1A65206F20
:104C6000FDF7FFFAC0E7394A1A65E06EFDF7F9FA79
:104C7000BAE72046FFF715FE2046FCF7E3FDB3E751
:104C800012F0400F23D011F0400F20D0D4F8803024
:104C900043F00803C4F8803010F4003F10D0E36EF6
:104CA00043B9236F002B9FD0284A1A65206FFDF768
:104CB000D8FA99E7254A1A65E06EFDF7D2FA93E72C
:104CC0002046FFF7EEFD2046FCF7BCFD8CE712F016
:104CD000040F27D011F0040F24D0D4F8802042F024
:104CE0002002C4F88020E26E3AB9226F5AB1174B05
:104CF0001365206FFDF7B5FA76E7144B1365E06E88
:104D0000FDF7AFFA70E700221A6123684FF0FF3118
:104D10009961012384F87D30A4F86A202046FCF7CD
:104D200091FD61E712F0100F3FF45EAF11F0100F2C
:104D30003FF45AAF10229A61D4F880301343C4F87C
:104D400080302046FCF77EFD4EE77047514D00084D
:104D500010B5846B2268136823F400331360236852
:104D600000221A6123684FF0FF329A61D4F8803034
:104D7000202B07D02046FFF735FC2268536843F00C
:104D800008035360012384F87D300023A4F86A30BF
:104D90002046FCF757FD10BD90F87D0070470000DD
:104DA00000B585B000230093019302930393154847
:104DB000154A02604FF48032426083600122026132
:104DC000826180F82030C36210498162C360C26191
:104DD00080F830204261FCF731FF68B9002300936E
:104DE000012301930623029369460648FCF752FF0C
:104DF00028B905B05DF804FB00F049FCEEE700F0CF
:104E000046FCF6E71C050020002201400100000FCF
:104E100010B588B00023039304930593069307937A
:104E200002681F4B9A4201D008B010BD044603F53A
:104E30008B335A6C42F480625A645A6C02F480627A
:104E40000192019A1A6B42F001021A631B6B03F084
:104E500001030293029B012303930323049303A9F9
:104E60001048FDF7FFFA1048104B03604FF08063C5
:104E7000436000238360C3604FF48062026143613A
:104E800083614FF48072C26103624362FDF7CCF824
:104E900018B9054BA3639C63C6E700F0F8FBF8E77D
:104EA0000022014000000240BC04002010640240C7
:104EB00000B583B00E4B1A6B42F480021A631B6B71
:104EC00003F480030193019B002211463820FCF774
:104ED000C9FF3820FCF7F8FF002211463C20FCF700
:104EE000C1FF3C20FCF7F0FF03B05DF804FB00BFFE
:104EF0000038024070470000F0B58BB000240594E4
:104F00000694079408940994224B1A6B42F001020C
:104F10001A631A6B02F001020192019A1A6B42F4B1
:104F200080721A631A6B02F480720292029A1A6BF0
:104F300042F040021A631A6B02F040020392039A95
:104F40001A6B42F080021A631B6B03F08003049318
:104F5000049B114F224602213846FDF711FC0F4DEC
:104F6000224640212846FDF70BFC0223059301262B
:104F700006960794089405A93846FDF773FA40236E
:104F8000059306960794089405A92846FDF76AFA42
:104F90000BB0F0BD00380240002002400018024073
:104FA00008B51248124B0360124B43600023836024
:104FB0000122C260036143618361C3610362FDF743
:104FC000A1FD50B900210948FEF786FA40B9002139
:104FD0000648FEF7AFFA30B908BD00F058FBF1E71C
:104FE00000F055FBF3E700F052FBF5E76405002005
:104FF000005C0040F7A3A00030B589B00023039304
:10500000049305930693079302681C4B9A4201D0C0
:1050100009B030BD1A4C236B43F080032363236B2C
:1050200003F080030193019B4FF4C0730393122399
:10503000049301250595032306930423079303A9ED
:105040001048FDF70FFA236C43F400032364236C2C
:1050500003F400030293029B002229464820FCF738
:1050600001FF4820FCF730FF002229464920FCF7C9
:10507000F9FE4920FCF728FFCAE700BF005C0040AA
:1050800000380240001C024008B502680A4B9A42F0
:1050900000D008BD094A136C23F4000313644FF4D5
:1050A000C0710748FDF7CEFA4820FCF71BFF4920E6
:1050B000FCF718FFEDE700BF005C0040003802403D
:1050C000001C024000239A420AD910B431F913405F
:1050D00020F8134001339A42F8D85DF8044B70472A
:1050E0007047000010B50848084B0360084C094A97
:1050F00022601A6822F480321A60FFF7B1FB204662
:10510000FFF7AEFB10BD00BFE4010020245C0140AE
:1051100060010020045C0140F0B58BB007463B4CB9
:10512000636C43F400036364636C03F40003019352
:10513000019B236B43F040032363236B03F0400385
:105140000293029B4FF48063059302250695002687
:10515000079608950A23099305A92D48FDF782F9BA
:10516000236B43F080032363236B03F080030393DB
:10517000039B4FF40043059306960796089505A9EF
:105180002448FDF76FF9236B43F480032363236BFB
:1051900003F480030493049B3A681F4B9A4211D096
:1051A00000220F214620FCF75DFE4620FCF78CFE16
:1051B00000220F212820FCF755FE2820FCF784FE52
:1051C0000BB0F0BD154C6660A660E6604FF48062DF
:1051D00022614FF4006262614FF40052A2614FF409
:1051E0008072E2614FF40032226266620322A262A0
:1051F000E66226630A4B23603C67A7632046FCF700
:1052000079FF2046FCF710FFCAE700BF00380240D4
:1052100000180240001C0240245C0140880300206A
:10522000B86402402DE9F04F83B0394C394B23600C
:105230001A6822F480321A60002666620190E061EA
:105240006660666126634FF0800AC4F834A0A663E6
:10525000E663A6604FF4005323610127A761E6606F
:10526000A662E66226624FF04009C4F840904FF013
:105270002008C4F844804FF48032A264E6644FF4FE
:10528000802222656665A6650422E2654FF00F0B59
:10529000C4F860B02046FFF7C7F91F4D1F4B2B60C5
:1052A0001A6822F480321A606E62019BEB6103235C
:1052B0006B606E612E63C5F834A0AE63EE63AF60C1
:1052C0002E61AF61EE60AE621023EB622E62C5F814
:1052D0004090C5F844804FF48033AB64EE644FF4E3
:1052E00080232B656E65AE650423EB65C5F860B061
:1052F0002846FFF799F92A68136843F4803313604E
:105300002268136843F48033136003B0BDE8F08F64
:1053100060010020045C0140E4010020245C0140A5
:1053200038B50546FFF7DEFE194C00222946204617
:10533000FCF710FA174B184A1A60184B23602046E6
:10534000FFF72AFDC8B12846FFF76CFF144B9B6896
:105350003420984748F69413984217D1104CE36ACA
:10536000342098470F4B1C6624682B46642240F279
:1053700002313420A047002038BD00210548FCF749
:105380002FF900212046FFF7C7FEDCE70120F3E7F5
:10539000E401002060010020045C0140245C014025
:1053A000040000208803002038B504460A4B1B6E19
:1053B000DB688DB22A4601463420984708B10120A7
:1053C00038BD2A4621460548FFF7CAFA08B9002029
:1053D000F6E70120F4E700BF880300206001002009
:1053E00070B5B4B03022002128A800F003FB0024DF
:1053F000239424942594269427948422214602A859
:1054000000F0F8FA224B1A6C42F080521A641B6CBE
:1054100003F080530093009B1E4A136823F440431B
:1054200043F400431360136803F440430193019B6A
:105430000225289501262B9610232C932E952F9428
:105440000A233093D22331933295339528A8FEF75F
:105450009DF80F232393249525944FF4A05326936E
:105460004FF480532793052123A8FEF7CDFA4FF47C
:1054700088130293C0230793099508950A940C9604
:105480000D9412941D9402A8FEF770FB34B070BD09
:10549000003802400070004008B5024B186FFCF75E
:1054A000F3FE08BDE401002008B5024BD86EFCF7FE
:1054B000EBFE08BD6001002030B482B004460D460A
:1054C0001A4B93E8030002AB03E90300002300E05A
:1054D0000433AB4223D234F91310BDF900008142EA
:1054E00001DDADF80010591C34F91110BDF90200AE
:1054F000814201DDADF80210991C34F91110BDF99B
:105500000400814201DDADF80410D91C34F91110FA
:10551000BDF906008142DBDDADF80610D8E76B4629
:1055200003CB1060516002B030BC7047B468000813
:1055300010B582B04AF64440FFF7F2FE00BB29489E
:1055400000F0D4FA4FF4805227492848FFF76CFA4C
:105550000146C8B9264800F0C9FA264800F0C6FA44
:105560004FF480512448FFF71FFF88B9234800F00B
:10557000BDFA234800F0BAFA224B00221A601EE05E
:10558000214800F0B3FADDE7204800F03BFAE4E7F9
:105590001F4800F0ABFAECE7134C6A464FF4006189
:1055A0002046FFF789FF4FF4006221461248FFF7BB
:1055B00089FD144B00221A60164B5B6E73B9114BB8
:1055C0001B68002BF8D00F4B1B68012BE4D04FF465
:1055D000006211491148FFF775FDEAE70D4B002203
:1055E0005A66ECE7D4680008B0050020E40100200A
:1055F0001869000848690008B0250020746900088F
:1056000014690008B8450020F468000830690008F3
:105610008869000888030020B0150020B0350020FC
:1056200008B5FCF73FFAFFF7DBFEFFF765FCFFF775
:105630003FFCFFF7B5FC00F02BF8FFF75BFCFFF732
:10564000AFFB022210214AF64440FCF7FDF94AF66E
:10565000444232210220FCF7B3F8024B1870FFF7E6
:1056600067FF00BFB2450020014B01225A66704718
:1056700088030020014B02221A607047B8450020C1
:10568000014B01221A607047B845002070477047EF
:1056900010B50C480C4B036001234360002282606C
:1056A00002614261042181614AF64444C461C260DE
:1056B00042628262FFF7BCF800B910BDFFF7E7FF56
:1056C000FBE700BFBC450020045C014002682C4B96
:1056D0009A4200D0704730B587B00446294B1B680A
:1056E000002B36D0274A136801331360F02301934F
:1056F000022302930025039504930A23059301A92D
:105700002148FCF7AFFE2148214B03604FF0C063F6
:1057100043608560C5604FF4806303614FF480533C
:1057200043614FF4804383614FF48073C3614FF44E
:10573000003303620423436203238362C56205636B
:10574000FCF772FCC0B9114B23679C63E36607B09A
:1057500030BD104B5A6C42F400025A645B6C03F487
:1057600000030093009B002211465B20FCF77AFBAC
:105770005B20FCF7A9FBB5E7FFF789FFE3E700BF74
:10578000045C0140F003002000200240404600205D
:10579000706402400038024002680F4B9A4200D009
:1057A000704710B504460D4A1368013B136053B1AE
:1057B000F0210B48FCF746FF206FFCF79BFCE06EE6
:1057C000FCF798FC10BD074A536C23F400035364A4
:1057D0005B20FCF787FBEBE7045C0140F003002053
:1057E000002002400038024082B00A4B1A6C42F09E
:1057F00080521A641A6C02F080520092009A5A6C1D
:1058000042F480425A645B6C03F480430193019B31
:1058100002B07047003802407047FEE7FEE7FEE73F
:10582000FEE770477047704708B5FCF747F908BDB9
:1058300008B50248FCF728FD08BD00BFBC040020E5
:1058400008B50248FDF788FB08BD00BF64050020CD
:1058500008B50248FDF7F3FD08BD00BF6405002050
:1058600008B50248FFF7ACF908BD00BFBC450020F1
:1058700070B50D461646002404E0AFF30080287092
:1058800001340135B442F8DB304670BD70B51646C0
:10589000002405E04D1C0878AFF300800134294650
:1058A000B442F7DB304670BD08B503460B4A1268B8
:1058B00042B10A4A106803446A46934206D8074A2E
:1058C000136008BD054A06491160F2E700F068F868
:1058D0000C2303604FF0FF30F3E700BFF403002018
:1058E000A84600204FF0FF3070474FF400534B6044
:1058F00000207047012070470020704710B40F4A05
:10590000D2F8883043F47003C2F888300C4B196821
:1059100041F001011960002098601C68094921408C
:10592000196009495960196821F480211960D8600B
:105930004FF0006393605DF8044B704700ED00E0AA
:1059400000380240FFFFF6FE10300024DFF834D0AC
:10595000002103E00C4B5B58435004310B480C4BC7
:1059600042189A42F6D30B4A02E0002342F8043B65
:10597000094B9A42F9D3FFF7C1FF00F017F8FFF780
:105980004FFE704700000520446A00080000002018
:10599000A4000020A4000020A4460020FEE7000090
:1059A000014B1868704700BF4000002070B50D4ED5
:1059B0000D4CA41BA4100025A54209D10B4E0C4C84
:1059C00000F068FFA41BA4100025A54205D170BDFE
:1059D00056F8253098470135EEE756F825309847B8
:1059E0000135F2E73C6A00083C6A00083C6A00089E
:1059F000406A000802440346934200D1704703F80E
:105A0000011BF9E70FB40A4B13B51C6824B1A36955
:105A100013B9204600F022FA05AB049AA16801935D
:105A2000204600F0DBFB02B0BDE8104004B0704738
:105A30004000002070B50E46054618B183690BB9C9
:105A400000F00CFAAB69AC6813B9284600F006FA0E
:105A5000234B9C4217D16C68A3891B071DD5236972
:105A6000DBB1013EA36816F8011F013BA360E9B951
:105A7000002B2EDA22460A21284600F03FF801309A
:105A800011D00A2011E0174B9C4201D1AC68E3E72A
:105A9000154B9C4208BFEC68DEE72146284600F023
:105AA0007FF80028DDD04FF0FF3070BD002B04DA06
:105AB000A2699A4206DC0A2904D023685A1C226093
:105AC0001970CFE72246284600F018F80130C9D1F6
:105AD000E9E723680A205A1C22601870E5E700BF36
